{
  "transactions": [
    {
      "hash": "0x383bc389e7e2a181e03480a61987b13262ab90bfa4639fbd458f6482b3c5db53",
      "transactionType": "CALL",
      "contractName": null,
      "contractAddress": "0x779877a7b0d9e8603169ddbd7836e478b4624789",
      "function": "transferAndCall(address,uint256,bytes)",
      "arguments": [
        "0x9DdfaCa8183c41ad55329BdeeD9F6A8d53168B1B",
        "3000000000000000000",
        "0xeb3ef95c920905ec26fd12483e0521af692c34749a668f2ff74f259d259c7f04"
      ],
      "transaction": {
        "from": "0x4158de8ffc641e65998b10aa2e388851662c1606",
        "to": "0x779877a7b0d9e8603169ddbd7836e478b4624789",
        "gas": "0x14cbb",
        "value": "0x0",
        "input": "0x4000aea00000000000000000000000009ddfaca8183c41ad55329bdeed9f6a8d53168b1b00000000000000000000000000000000000000000000000029a2241af62c000000000000000000000000000000000000000000000000000000000000000000600000000000000000000000000000000000000000000000000000000000000020eb3ef95c920905ec26fd12483e0521af692c34749a668f2ff74f259d259c7f04",
        "nonce": "0x2d",
        "chainId": "0xaa36a7"
      },
      "additionalContracts": [],
      "isFixedGasLimit": false
    }
  ],
  "receipts": [
    {
      "status": "0x1",
      "cumulativeGasUsed": "0x10b6796",
      "logs": [
        {
          "address": "0x779877a7b0d9e8603169ddbd7836e478b4624789",
          "topics": [
            "0xddf252ad1be2c89b69c2b068fc378daa952ba7f163c4a11628f55a4df523b3ef",
            "0x0000000000000000000000004158de8ffc641e65998b10aa2e388851662c1606",
            "0x0000000000000000000000009ddfaca8183c41ad55329bdeed9f6a8d53168b1b"
          ],
          "data": "0x00000000000000000000000000000000000000000000000029a2241af62c0000",
          "blockHash": "0x5cbfaa84b580c4dc45afa46bfb7f39bc40529be7fd0e8e270c023d81e9ab2848",
          "blockNumber": "0x8428fb",
          "blockTimestamp": "0x68626a88",
          "transactionHash": "0x383bc389e7e2a181e03480a61987b13262ab90bfa4639fbd458f6482b3c5db53",
          "transactionIndex": "0xc1",
          "logIndex": "0x145",
          "removed": false
        },
        {
          "address": "0x779877a7b0d9e8603169ddbd7836e478b4624789",
          "topics": [
            "0xe19260aff97b920c7df27010903aeb9c8d2be5d310a2c67824cf3f15396e4c16",
            "0x0000000000000000000000004158de8ffc641e65998b10aa2e388851662c1606",
            "0x0000000000000000000000009ddfaca8183c41ad55329bdeed9f6a8d53168b1b"
          ],
          "data": "0x00000000000000000000000000000000000000000000000029a2241af62c000000000000000000000000000000000000000000000000000000000000000000400000000000000000000000000000000000000000000000000000000000000020eb3ef95c920905ec26fd12483e0521af692c34749a668f2ff74f259d259c7f04",
          "blockHash": "0x5cbfaa84b580c4dc45afa46bfb7f39bc40529be7fd0e8e270c023d81e9ab2848",
          "blockNumber": "0x8428fb",
          "blockTimestamp": "0x68626a88",
          "transactionHash": "0x383bc389e7e2a181e03480a61987b13262ab90bfa4639fbd458f6482b3c5db53",
          "transactionIndex": "0xc1",
          "logIndex": "0x146",
          "removed": false
        },
        {
          "address": "0x9ddfaca8183c41ad55329bdeed9f6a8d53168b1b",
          "topics": [
            "0x1ced9348ff549fceab2ac57cd3a9de38edaaab274b725ee82c23e8fc8c4eec7a",
            "0xeb3ef95c920905ec26fd12483e0521af692c34749a668f2ff74f259d259c7f04"
          ],
          "data": "0x000000000000000000000000000000000000000000000001a0537b4042a88a9a000000000000000000000000000000000000000000000001c9f59f5b38d48a9a",
          "blockHash": "0x5cbfaa84b580c4dc45afa46bfb7f39bc40529be7fd0e8e270c023d81e9ab2848",
          "blockNumber": "0x8428fb",
          "blockTimestamp": "0x68626a88",
          "transactionHash": "0x383bc389e7e2a181e03480a61987b13262ab90bfa4639fbd458f6482b3c5db53",
          "transactionIndex": "0xc1",
          "logIndex": "0x147",
          "removed": false
        }
      ],
      "logsBloom": "0x00000004000000000000000000000000000000000020000000000000020000000000000000000000000000000000000000000000000000000000000000000000000000000000000000000008000000000000000000000000000020100020000008000000000000000000000000000000000000000000000000000010000040000000000000000000000000010000800000000022000000000000000000000000000000000000000000000000010000000000000000000000000004000000000000000002100000000000000000004000000000000000000100002000000000000010000000000000800000004000000000000000000000000000000000000000",
      "type": "0x2",
      "transactionHash": "0x383bc389e7e2a181e03480a61987b13262ab90bfa4639fbd458f6482b3c5db53",
      "transactionIndex": "0xc1",
      "blockHash": "0x5cbfaa84b580c4dc45afa46bfb7f39bc40529be7fd0e8e270c023d81e9ab2848",
      "blockNumber": "0x8428fb",
      "gasUsed": "0xf0e5",
      "effectiveGasPrice": "0x1d3e8d",
      "from": "0x4158de8ffc641e65998b10aa2e388851662c1606",
      "to": "0x779877a7b0d9e8603169ddbd7836e478b4624789",
      "contractAddress": null
    }
  ],
  "libraries": [],
  "pending": [],
  "returns": {},
  "timestamp": 1751280265,
  "chain": 11155111,
  "commit": null
}